:020000040800F2
:1000000060190020496100080D5F00080F5F0008BB
:10001000115F0008135F0008155F00080000000072
:10002000000000000000000000000000175F000852
:10003000195F0008000000001B5F00081D5F00083A
:100040007D6100088161000885610008255F000866
:10005000896100088D6100089161000895610008C0
:10006000996100089D610008A1610008A561000870
:10007000A9610008AD610008B1610008B561000820
:10008000B9610008BD610008C161000800000000FE
:1000900000000000C5610008C9610008CD610008CA
:1000A000D1610008D5610008D9610008DD61000850
:1000B000E1610008E5610008E9610008ED61000800
:1000C0000000000000000000F161000800000000D6
:1000D000F5610008F961000800000000FD610008FA
:1000E00001620008056200080000000009620008C3
:1000F0002D5F0008355F00083D5F00080D620008B5
:100100001162000800000000000000000000000074
:1001100015620008196200081D6200080000000056
:1001200000000000000000000000000000000000CF
:1001300000000000000000002162000840F02000E4
:1001400070472DE9F14FB2B09A4601A891460023BD
:100150000691C0E900333C9A0F930DF14A011491C6
:100160004A7009E0329823464A4604A900F09EFFEF
:10017000002800F12081A14499F80000252808D129
:100180000021002209910A920B910C920D910E927E
:100190000FE001AA4FF0FF31484601F01BF80400C0
:1001A00002D10F9800F0E4BDDCD50124E3E741F073
:1001B000010119F8010F2028F9D023280CD02B2891
:1001C00004D02D2805D0302809D00BE041F00201E1
:1001D000EFE741F00401ECE741F00801E9E741F005
:1001E0001001E6E72A280FD1DAF8002052F8040BB4
:1001F000CAF800200028119003D54042119041F028
:10020000040109F1010914E01192DFF8E83A0AE06B
:100210001198984205DA00EB800402EB4402303A70
:10022000119209F1010999F80020A2F130000A2881
:10023000EED399F800002E2803D04FF0FF32109231
:1002400029E019F8010F2A2809D1DAF8000050F83E
:10025000042BCAF80000109209F101091BE02D28B7
:100260000CBF09F10109002000221092DFF8842A56
:100270000BE040B9109B934205DA03EB830504EBD6
:100280004504303C109409F1010999F80040A4F1AB
:1002900030030A2BEDD3ADF848100FF65C2099F827
:1002A000001000F0A1FF08B119F8010B8DF84A0009
:1002B0009DF84A00682805D199F8000068280CD1FB
:1002C000622106E06C2804BF99F800006C2804D174
:1002D00071218DF84A1009F1010922A8089019F836
:1002E00001BBBBF125012DD01C3900F02681091F6F
:1002F000022940F222810E392AD0491F00F03484AD
:10030000093900F01A81891E00F0C784491E00F0E7
:100310007684491E022940F21081091F00F06F8483
:10032000491F00F07F80491E00F01E84491E65D0E1
:10033000C91E21D0891E00F01784C91E00F0148444
:1003400000F0C8BC0122099225218DF888102AE00E
:100350006C208DF84A00DAF8000050F8042BCAF837
:100360000000002A43D11499487800283DD04FF06E
:10037000FF340FF68C1012E09DF84A006C28EAD08A
:10038000DAF8000050F8044BCAF800000794D4B91A
:100390001499487898B14FF0FF340FF6801000F0B0
:1003A0003DFF201A07D1329822AA04A900F0E3FCED
:1003B00000287FF5E1AE4FF0FF3000F0D9BC0FF61A
:1003C00078100790EFE7109D002D04D5204600F02F
:1003D00045FF044607E02A46204600F05FFF00285C
:1003E00014BF041B2C460A94DDE70FF65012329816
:1003F00004A900F046FD0028D5D5DCE7DAF80010A6
:1004000051F8040BCAF8001020F00004002121F07C
:10041000FF35CDE9044522AB0793782104A800F00D
:1004200090FDC0E71499487820B14FF0FF340FF6E3
:100430001010B4E79DF84A00622862D0682819D0ED
:100440006A2840D06C2806D071284DD074282DD051
:100450007A281ED064E0DAF8001051F8040BCAF8CC
:10046000001020B94FF0FF340FF6EC0097E70F991A
:10047000016098E7DAF8001051F8040BCAF8001090
:1004800020B94FF0FF340FF6D00088E70F990180B4
:1004900089E7DAF8001051F8040BCAF800100028B8
:1004A000E5D14FF0FF340FF6B00078E7DAF800102E
:1004B00051F8040BCAF800100028D8D14FF0FF34CF
:1004C0000FF694006BE7DAF8001051F8040BCAF845
:1004D000001020B94FF0FF340FF67C005FE70F9A51
:1004E000D317C0E900235EE7DAF8001051F8040BD7
:1004F000CAF800100028F2D14FF0FF340FF6580070
:100500004DE7DAF8001051F8040BCAF8001020B9D2
:100510004FF0FF340FF6400041E70F99017042E7BA
:10052000DAF8001051F8040BCAF8001000289ED128
:100530004FF0FF340FF6200031E7DAF80000C31D5A
:100540009DF84A0023F007034C28CAF80030D3E98D
:10055000000107BF0833CAF8003003F10804CAF8E5
:100560000040CDE90401C80F02D009982D210AE00E
:10057000BDF84800810702D509982B2103E0C00788
:1005800005D50998202122AB1954401C099022A8B6
:100590000999DDE9044543184BF0200061280793D1
:1005A00015AE0BD01098002802D50620109005E05B
:1005B00001BF4BF02000672801211091DDE9040103
:1005C0004F007F1517F1010F11D108030FD0ABF1C8
:1005D000610203201A2A0A9002D20FF6003101E0CC
:1005E0000FF6FC210322184600F084FEDBE617F12B
:1005F000010F0AD1090308D1ABF1610203201A2AC5
:100600000A9018D30FF6E021ECE7DDE904016A4611
:1006100000F0C4FECDE904014BF02000612811D1A7
:10062000079830210170821C0792BBF1610F0CBF4B
:100630007821582102E00FF6AC21D3E741700998E8
:10064000801C0990DDE9040120F0000231F0004334
:1006500008BF002A02D10025002446E14BF0200803
:10066000B8F1610F40F095801098002847BF212114
:100670000391401C0390039F7F1C204629460022C3
:100680000023DDE9044500F0C1FE38BF85F00045D8
:1006900000998DF85420091F002F00910DF155008D
:1006A00034DD0646204629460022002300F0C8FE1D
:1006B0002BD21C2200F0DEFE04460D4600F078FF2F
:1006C000FF1F002F804609DD00F08EFF02460B461B
:1006D0002046294601F050F804460D46F01D07213A
:1006E000B8F1000F0CDD491E5EBF08F00F0200F8E4
:1006F000012D4FEA2818F3D502E0002200F8012D61
:10070000491EFAD5C61D002FCCDC30460DF155012F
:10071000401A03990DF1550605468842C8BF0D469B
:10072000002D2FD4854206DA0DF15500415D0829D0
:10073000A8BF0F2000DA0020294615AA0A4400E0CD
:100740006D1E12F80139491E8342F9D00F2804D1D9
:100750000DF15500425C521C4254002904D500980A
:10076000001D15AE6D1C0090681E0BD431180A7860
:100770003032D3B23A2BA4BF5A443A3A401E01F861
:100780000129F4D51098002840F1AE80691E10911F
:10079000AAE00099DFF8042947F29750414391FB02
:1007A000F2F2009225F00045C2F10702002A04DDB2
:1007B0002046294600F04FFC0BE052420020DFF8B3
:1007C000E01800F048FC02460B462046294601F09E
:1007D00045F804460D46B8F1660F06BF009F0A377C
:1007E000062710983F18142FC8BF142730208DF803
:1007F00054000020DFF8AC18CDE920010DF15506BA
:10080000002F33DD2046294601F04CF901460A4607
:1008100006F1080304200A26B2FBF6F606EB860E64
:10082000A2EB4E02303203F8012C0A22B6FBF2F2A0
:1008300002EB820EA6EB4E063036401E03F8026D28
:10084000E9D1083F002F03F10806D9DD084601F081
:100850003BF902460B462046294600F08DFFDDE9B4
:10086000202301F03FF904460D46CBE70DF155007A
:10087000301A0DF1550604E00099491E401E009102
:10088000761C31783029F7D0B8F1660F02D1009983
:10089000491C04E0B8F1650F0CBF01210021109D37
:1008A0004D19A842B8BF451E002D1DD4854204DA5B
:1008B000705D3428C8BF392000DC30202946721E04
:1008C000531800E06D1E13F80149491E8442F9D007
:1008D000392802D1705C401C7054002904D500985E
:1008E000401C16466D1C0090009C00F077FC406A8E
:1008F0000778DDF8408028B2002802DC01250FF2DD
:10090000EC764BF02000662808BF641C16D06728E0
:1009100046D120B210F1040F48DB404546DA9DF87D
:100920004800641C010703D428B24045D8BF804664
:1009300020B2B8EB000848BF4FF000080FFA84FB64
:1009400007980A99BBF1000F00F3B3804A1C0A9282
:1009500030234354B8F1000F03DC9DF84800010731
:1009600004D50A98411C0A9107990F5418EB0B0FF4
:10097000B8BFC8F1000424B26042A0442AB20D906E
:100980009045B8BF4546079B0A982DB20B952A465D
:100990003146184400F0AEFCA8EB05000E90CCE008
:1009A000BBF1610F17D14FF0700B19E028B2404531
:1009B00004DA9DF848100A0758BF8046B8F10108CC
:1009C00048BF4FF00008BBF1670F14BF4FF0450B55
:1009D0004FF0650B04E0BBF1410F08BF4FF0500B27
:1009E0000A98411C0A91B8F1000F079916F8012BDB
:1009F0000A5403DC9DF8480001071AD50A98411CE7
:100A00000A91B8F1000F07990F5412DD6D1E28B23C
:100A10008045B8BF454607980A9B2AB2314618441C
:100A200000F068FC0A992DB269180A91A8EB05003C
:100A30000D9007980A99084421B2002980F800B067
:100A400003D42B224270821C04E02D2242700C46FB
:100A5000821C644200211FAB20460AE004460A20A3
:100A600094FBF0F000EB8005A4EB450403F8014B88
:100A7000491C00B20028F1DC012906DC4BF0200003
:100A8000652804BF302002F8010B00291FAB08D1F4
:100A9000302002F8010B06E0491E585C303002F8A5
:100AA000010B0029F8DC07990A980844121A0B92E6
:100AB00043E0084429B222B2914219DA2AB23146FF
:100AC00000F018FC0A992DB269180A91ABEB0500E9
:100AD000B8F1000F0D9003DC9DF84800020704D523
:100AE000079847540B99491C0B91CDF8388024E0A6
:100AF000314600F0FFFB0A982D1B5844B8F1000F57
:100B00000A9003DC9DF848100A0703D5411C0A919E
:100B100007990F5428B28045B8BF454607980A9BED
:100B20002AB206EB0B01184400F0E4FB0A982DB240
:100B300028180A90A8EB05000D909DF8480000F0D9
:100B4000140010287FF42FAC099A0A990D988A187E
:100B50000B9982180E988A18821811988242BFF653
:100B600022AC821A0C921EE49DF84A00622808D03A
:100B700068280ED06A2814D06C281FD0712810D095
:100B80001CE0DAF8001051F8040BCAF80010C0B2EB
:100B90001AE0DAF8001051F8040BCAF8001080B21D
:100BA00012E0DAF80000C21D22F00702CAF80020A5
:100BB000D2E900010832CAF8002006E0DAF8001095
:100BC00051F8040BCAF800100021CDE904019DF88A
:100BD000480001075AD5DDE90423002B08BF002A8D
:100BE00054D04BF02000782850D1099822A9302207
:100BF0000A54401C431C099301F800B046E09DF8DC
:100C00004A00622808D068280ED06A2814D06C28C0
:100C10001FD0712810D01CE0DAF8001051F8040B36
:100C2000CAF8001040B21AE0DAF8001051F8040BCC
:100C3000CAF8001000B212E0DAF80000C21D22F07B
:100C40000702CAF80020D2E900010832CAF80020E1
:100C500006E0DAF8001051F8040BCAF80010C117CA
:100C6000CDE90401002902D509982D210AE0BDF83B
:100C70004800810702D509982B2103E0C00705D55C
:100C80000998202122AA1154401C099022A80999F0
:100C9000014407915946FFF7C1BB9DF84A006C28F3
:100CA00009D001210991DAF8000050F8041BCAF8B4
:100CB0000000FFF74ABBDAF8000050F8041BCAF83E
:100CC000000015914FF0FF3210920021169115AAE5
:100CD000FFF78DBB01212522BBF1000F09918DF893
:100CE00088203FF460AB022209928DF889B0FFF7AB
:100CF0005ABB0000CBCCCC0C686A6C747A4C0000F8
:100D00007072696E74665F733A2062616420256C4C
:100D10007320617267756D656E7400007072696E24
:100D200074665F733A206261642025732061726784
:100D3000756D656E7400000000000000000000008A
:100D40007072696E74665F733A20256E20646973F1
:100D5000616C6C6F776564007072696E74663A20BE
:100D600062616420256E20617267756D656E740026
:100D700033B0BDE8F08F2DE9FC410F4606469046A2
:100D80007A6B7869396ABC6A121AB869521A796A38
:100D9000121AF869521A121A97F83800141B4107F0
:100DA0000FD42020002C8DF800000ADD25460123F9
:100DB0006A463946304600F079F900285DD16D1E4B
:100DC000F5D17B6942463946304600F06FF900287C
:100DD00053D130208DF800003D6A002D09DD01233C
:100DE0006A463946304600F061F9002845D16D1E4B
:100DF000F5D1BB69FA683946304600F057F900284A
:100E00003BD130208DF800007D6A002D08DD0123E4
:100E10006A463946304600F049F970BB6D1EF6D17E
:100E2000F868B969FB6942183946304600F03EF966
:100E300018BB30208DF80000BD6A002D08DD0123AD
:100E40006A463946304600F031F9B0B96D1EF6D128
:100E500097F8380041070DD52020002C8DF80000B0
:100E600008DD01236A463946304600F01FF920B9F3
:100E7000641EF6D10020BDE8F6814FF0FF30BDE8DA
:100E8000F6812DE9F8470D46A3B02F6B82469046B8
:100E9000002F48BF6FF0004700F0F9FE696B401863
:100EA00001AA0021C2E90011812828BF4FF0FF30BC
:100EB00044D289461EE0A74230DB686920188128A9
:100EC0000BD30021696303AA29465046FFF753FF5D
:100ED0005FEA000922D40020686103AB6E692246F4
:100EE0006946981900F006FAA6196E6158F8040BC5
:100EF000A0B13F1B002F11DDD8F8001001AA6846F1
:100F000000F06AF90446002C05D4D8F80000002847
:100F1000D1D1641ECFD54FF0FF390EE0B9F1000FEB
:100F2000504604D103AA2946FFF725FF8146B9F1AF
:100F3000000F02D1002068616863484624B0BDE814
:100F4000F0872DE9FC4707468A463C6950466F28E2
:100F500008BF082505D0FFF7F1F8782814BF0A2547
:100F60001025D7E900013C2680468946BAF1640F76
:100F700018BFBAF1690F05D1002903D5D8F10008CF
:100F800069EB4909B9F1000F08BFB8F1000F0CD1A6
:100F9000386B50B9082D3AD197F83800010736D58B
:100FA00030223B2684F83B2031E08DF800A04046FB
:100FB00049462A46EB1700F06FFE3032D0B2761E5B
:100FC0003A2801960EDAA255404649462A46EB17C2
:100FD00000F062FE80465FEA010908BFB8F1000F29
:100FE00005D108E09DF800001218513AEBE7F868C7
:100FF000A1198842DBD3082D09D197F838000107E1
:1010000005D5A05D302802D0761E3020A055C6F14F
:101010003C02BA61A119F960386B824208DA821A7F
:101020003A624FF6EF70398F01403987BDE8F38798
:1010300000280ED597F8380000F01400102808D1C9
:101040007B6B7969386A5B1A1B1A9A1A002AC8BF27
:101050003A62BDE8F3872DE9D04306460F461446B1
:101060004FF00008DFF8409012E0E00707D5424655
:101070004B463046394600F035FD06460F464046A1
:10108000494642464B4600F02DFD64108046894695
:10109000002CEAD130463946BDE8D083A086010055
:1010A0000000F03F84D7974100002440F8B5054682
:1010B0000E4617461C4600205CB117F8011BB068AD
:1010C000A847B06030B1F06A401CF0620020641E96
:1010D000F3D1F2BD4FF0FF30F2BD00006E616E0043
:1010E0004E414E00696E6600494E46003000F0B435
:1010F0000246106895681318506803EB5004C00747
:1011000048BF4D44A3422DD013F8016B16F00300E5
:1011100004BF13F8010BC01C31090F2907D113F8C4
:10112000011B0F3103E013F8017B05F8017B401E22
:10113000F9D10029E6D013F8010BC6F38106032E7E
:1011400008BF13F8016B00EB06204042284400263C
:10115000B71E8F421EBF10F8017B05F8017B761C7D
:10116000F6D1CFE7F0BC02F10C0070471C48704785
:1011700070B45368D41801E05B1C491E042B08DAD4
:1011800000291FBF057804F8015B10F8016B002EE1
:10119000F2D1536070BC704738B514461D4661B13A
:1011A000FFF7E6FF61686A6B204690476FF0010227
:1011B000811A02D0491E01D001E003E005E00021C0
:1011C000616032BD6FF0010032BD4FF0FF3032BDC3
:1011D000DA6B1047024BDFE7014BF9E70148704734
:1011E0005000002018000020C9B202788A421AB1CB
:1011F0001CBF10F8012FF9E718BF00207047B1F5A8
:10120000807F02D34FF0FF3070470170012070479C
:101210000078401E8041C043C00F704780B500B9C0
:1012200006A005490B681BB122220021984701E066
:1012300000F04AFE222002BD4C090020636F6E734D
:10124000747261696E742068616E646C65723A20B4
:10125000626164206D6573736167650000F101036D
:10126000810704D010F8011B820781B1FAD102680E
:10127000A2F10131914311F0803104BF50F8042FE5
:10128000F6E709BAB1FA81F100EBD100401CC01AAF
:1012900070470268531C036011707047C9B283071E
:1012A00006D0521E22D310F8013B9942F7D11FE01D
:1012B000083A13D302F1040241EA012141EA014153
:1012C00050F8043B121F21BF4B40A3F1013C2CEA14
:1012D000030C1CF0803FF3D0C9B2001F083210F895
:1012E000013B521E28BF91EA030FF8D818BF012016
:1012F000401E704762B38B0708D0521E11F8013BA5
:1013000000F8013B00F024808B07F6D1830740F002
:10131000208000BF103A07D330B4B1E83810103A3B
:10132000A0E83810F9D230BC530724BFB1E8081048
:10133000A0E8081044BF51F8043B40F8043BD20732
:1013400024BF31F8022B20F8022B44BF0B78037026
:101350007047121F17D35B0009D151F8043B20F8E6
:10136000023B1B0C121F20F8023BF6D20BE051F897
:10137000043B00F8013B1B0A20F8023B1B0C121F28
:1013800000F8013BF3D238BF121D521E24BF11F8E2
:10139000013B00F8013BF8D870472E0010B5144609
:1013A00000F002F8226010BDC1F30A5343B14A00B5
:1013B00012F5001F28D2A3F2FE32A1EB02517047B2
:1013C00050EA410C20D001F0004C31EA0C01B1FA96
:1013D00081F204BFB0FA80F3D2180B3AB2F12003C5
:1013E0002CBF00FA03F1914041EA0C013EBFC2F16B
:1013F000200C20FA0CF319439040524240F2FD3386
:10140000D21A01EB035170470022704741EA030CE6
:1014100050EA4C0C52EA0C0C4FF4001C09D307D0D4
:101420001CEB410F9CBF1CEB430F8B4208BF824259
:1014300070471CEB430FFBD8994208BF904270479E
:1014400041EA030C50EA4C0C52EA0C0C4FF4001C1D
:1014500009D307D01CEB410F9CBF1CEB430F9942F3
:1014600008BF904270471CEB410FFBD88B4208BF6E
:1014700082427047124254D440F2FF7C1CEA11535E
:101480000FD0634531D09B1863453CBF01EB02513F
:10149000704701F0004141EA0C510020AFF3008099
:1014A000704750EA410320D001F0004C91EA0C0152
:1014B0001CD0B1FA81F30B3B9A420DD9D21A994054
:1014C00051EA0C01C3F1200C20FA0CFC6144984055
:1014D000531C40F2FF7CD7E7914041EA0C01C2F176
:1014E000200C20FA0CF3194390407047B0FA80F3B7
:1014F0001533202BE0D3202AEED3203A203B9A420A
:1015000009D9D21A00FA03F141EA0C010020531C58
:1015100040F2FF7CB8E700FA02F141EA0C0100203A
:101520007047524240F2FF7C1CEA11530DD06345D4
:10153000DBD0B2EB030C3CBFA1EB025170470CF1C6
:10154000010221EA035141F4801150EA410CCCD050
:1015500001F0004C352A27DC30B481EA0C01B2F1ED
:10156000200309DAC2F12003044601FA03F5D04052
:101570002843D1409C400CE0C3F12002450020FAF2
:1015800003F418BF44F0010421FA03F091400C4326
:10159000002174F1004550F1000051EB0C01244290
:1015A00030BC7FF47BAF70476146002076E7430094
:1015B000C1F30A5340F21E42D31A0CDDCA0283F370
:1015C000070342EA505242F00042DA4002EBE17275
:1015D00082EAE17070476FEAE17203F2E13008B12C
:1015E00082F000407047704710F0004160B148BF82
:1015F0004042B0FA80F29040D21CC2F5846241EAC7
:10160000025202EBD021400570477047841A71EBFB
:10161000030604D26E40001BB141121973414FF40E
:10162000001C1CEB410F34BF7CEB430683E00C0D28
:10163000A4EB1356362E00F37C80012E45EAC3231B
:1016400041DC43EA525312BFD20292025B082405E6
:1016500045EAC12141EA5051D2EBC020994125D43D
:1016600007D1B0FA80F610FA06F162D000202036D9
:1016700008E0B1FA81F6B140C6F1200220FA02F288
:101680001143B0404FEAF474B4EB465434F0010611
:101690004FEA74040AD8D6F50016760D04F000441B
:1016A000F04061FA06F25040F1404840C00A40EA7A
:1016B000415021F0004128BF5FEA500550F1000081
:1016C00044EBD12135E0DB0A45EAC121C90AB6F174
:1016D00020050EDD42EA0242120CC5F1200603FA93
:1016E00006F6EB4042EA06056D42984161F10001C1
:1016F0000DE062FA06F5F240554063FA06FC82EA14
:101700000C02F3405A406D42904161EB030111F429
:10171000801F05D1641E620502D06D004041494121
:1017200021F48011430875F1004350F1000041EBB2
:10173000045170BC70471CEB410F15D223F00043DD
:1017400052EA43060BD04FEA4C0CBCEB410F04D8D5
:101750000C0D661E342EB7DDEBE7801A994150EA76
:10176000410608BF0021E4E708BF1CEB430F28BF78
:101770006FF00001DDE7000070B491EA030F4FF055
:1017800000457FF543AF6B40841A71EB030603D22B
:10179000001BB141121973414FF4001C1CEB410FA7
:1017A00034BF7CEB430442E00C0DA4EB1356352E02
:1017B0004FDC45EAC323DB0A45EAC121C912B6F171
:1017C00020050DDD63FA05F6EB4086EA03051242BB
:1017D00018BF45F00105C01851F100010CD213E00B
:1017E00062FA06F5F2405540F3415A40B340F340E7
:1017F0005A408018594107D349085FEA30005FEA30
:10180000350528BF45F0010501F58011420875F145
:10181000004250F1000041EB04514E0016F5001F4C
:1018200070BC38BF70470020090D090570471CEBDC
:10183000410F10D252EA43060BD0BCEB410F05D842
:101840000C0DAB43661E342EB6DD02E0AB438018B0
:10185000594170BC704770BC70470000F0B540F251
:10186000FF7581EA030C0CF0004C15EA11541DBF02
:1018700015EA1357AC42AF42E5E0BC41C1F3130196
:10188000C3F31303801A994143F4801304D2641EF6
:101890000018494180185941C90241EA5051B1FB31
:1018A000F3F603FB1611A2FB0675D7EBC020A94186
:1018B00002D2761E80185941C90241EA5051B1FB4B
:1018C000F3FE03FB1E11A2FB0E75D7EBC020A9414E
:1018D00003D2AEF1010E80185941890241EA9051BC
:1018E000760546EA8E2EB1FBF3F603FB1611A2FB3A
:1018F0000675D7EB8020A94102D2761E8018594187
:10190000C90241EA50514EEA060EB1FBF3F603FB61
:101910001611A2FB0675D7EBC020A94102D2761E94
:1019200080185941C90241EA5051B1FBF3F703FB5A
:101930001711A2FB0735D3EBC020A94167F10007BF
:101940000CBF004247F0010766F3D5274FEA1E316E
:10195000B80814F5806412DDBD0775F1004250EB44
:101960000E5051EB045111F5801F5CBF41EA0C0190
:10197000F0BD4CF07F6141F0E0410020F0BDBD07BB
:101980006D0840EA0E5041F48011D4F10104B4F125
:1019900020060ADAC4F120060200E04001FA06F34C
:1019A000E1401843B24015430EE0342C13DCC6F17D
:1019B000200445EA40056D0820FA06F2154321FA95
:1019C00006F0A1400D43002175F1004250F10000E6
:1019D00051EB0C01F0BD00205FEA0C01F0BDCFB966
:1019E00092185B41B3FA83F704BFB2FA82F6BF19CB
:1019F0000B3FB7F120062FBF02FA06F3BB40C7F139
:101A0000200622FA06F638BF3343BA401CB1E41967
:101A1000641E33E77F4231F00041B1FA81F404BF24
:101A2000B0FA80F6A4190B3CB4F120062FBF00FADF
:101A300006F1A140C4F1200620FA06F638BF314372
:101A4000A0403C1B1AE7AC421ABF05EA1357AF424D
:101A500012E050EA41061CBF52EA4306BFE750EAD3
:101A60004107304661461CBF41EA0551F0BD52EACC
:101A7000430C08BFC143F0BD00204FF4001616EB25
:101A8000410F98BF16EB430F08BF16EB410F24BF61
:101A9000C14305E016EB430F0CBF61464CEA05510C
:101AA000F0BD0000400D40F21E4C40EAC120BCEBEE
:101AB000115C40F0004003D48CF30701C84070472C
:101AC0006FEAE1707047000050B1B0FA80F18840D1
:101AD000C91CC1F58461090501EBD021400570479F
:101AE0000146704730B540F2FF7C1CEA11541DBF1F
:101AF0001CEA1355644565453FE0641981EA030C0F
:101B00006FF35F530CF0004C43F48013C90241F0B3
:101B1000004141EA505EC5021100A5FB0202002807
:101B20004FF00000EEFB01204FF00001E3FB052128
:101B300018BF42F00102401800214941E3FB0E01A9
:101B4000A4F580640D0302D292184041494154F13A
:101B5000010470DD450872F1004250F1000051EBC4
:101B60000451A1F5801102D441EA0C0130BD40F2CC
:101B7000FF7E4CEA0E51002030BD0CEA135564453F
:101B800018BF654581EA030C0CF0004C41D050EAC7
:101B9000410E1CBF52EA430E02E06146002030BDF8
:101BA00024422C441BD15FEA050EF6D0090302BF84
:101BB00001460020AEF1140EB1FA81F5AEEB05043A
:101BC00001FA05FE0C35C5F1200100FA05F5C84003
:101BD0004EEA000E6FF35F5343F480139CE733F03B
:101BE0000043B3FA83F504BFB2FA82FE75440B3D9D
:101BF000641BB5F1200E2FBF02FA0EF3AB40C5F106
:101C0000200E22FA0EFE38BF43EA0E03AA40641CDF
:101C10007CE750EA410E14BF52EA430E6FF0000118
:101C20004FF4001515EB430F8EBF194615EB410F0E
:101C30009DE7B4D830BDD4F10104B4F120050FDA2A
:101C4000C4F12005520828BF42F0010210FA05FE37
:101C500001FA05F57244E2BFE0402843E1400FE09D
:101C6000352C9ADCC5F1200452EA400220FA05F234
:101C700018BF42F0010231FA05F0A1400A430021E9
:101C800072F1004250F1000051EB0C0130BD80B503
:101C9000FFF76CFA006C02BDBBBBE1B1B2F5803F4F
:101CA00080F07E80022A1ED98C46B1FBF2F102FB45
:101CB00011C31B0443EA1043B3FBF2FC02FB1C33C9
:101CC00080B240EA0343B3FBF2F002FB103240EA79
:101CD0000C4000237047022A05D98446B0FBF2F07D
:101CE00002FB10C270474AB105D100F00102490859
:101CF0005FEA3000704700220023704700F0E8B828
:101D00000B000200002100207047904271EB030C91
:101D1000F6D3B3F5803F2FD2F0B5B3FA83F7B1FA1B
:101D200081F4A7F10F0E3D1B5340CEF1200602FABD
:101D30000EF2F3415340B5F10F0746D80F3C2C4447
:101D40004140C4F12006A040F1414140B1FBF3F60F
:101D500003FB1611A2FB0645001BA94102D2761E09
:101D60008018594180EA010221FA0EF362FA0EF25C
:101D700000215A403046F0BD30B4B1FBF3FC03FB08
:101D80001C11A2FB0C45001BA94103D2ACF1010CB4
:101D90008018594130BC02460B466046002170470E
:101DA000B2F1807F65D3F0B5B2FA82F7B1FA81F46F
:101DB000C7F10F063D1B22FA06F307F1110EF2419F
:101DC00020355A40B5F10F07B8D94140C4F120067B
:101DD000A040F1414140B1FBF3FC03FB1C11A2FB0D
:101DE0000C45001BA94103D2BCF1010C80185941DC
:101DF0000F2F12D30F3FC90341EA5041B1FBF3F655
:101E000003FB1611A2FB0645D4EBC030A94102D258
:101E1000761E8018594146EACC3C07B34140C7F1D1
:101E20002006B840F1414140B1FBF3F603FB161127
:101E3000A2FB0645001BA94102D2761E801859411B
:101E400080EA010221FA0EF3C7F1200462FA0EF2D1
:101E50000CFA07F05A402CFA04F13043F0BD80EA46
:101E6000010221FA0EF3002162FA0EF260465A4096
:101E7000F0BD8C46B1FBF2F102FB11C31B0243EA39
:101E80001063B3FBF2FC02FB1C331B024CEA002084
:101E900043EA1063B3FBF2FC02FB1C331B024CEA67
:101EA000002043EA1063B3FBF2FC02FB1C331B026D
:101EB0004CEA002043EA1063B3FBF2FC02FB1C3245
:101EC0004CEA002000237047012000F003B8000016
:101ED0007047000080B5AFF30080024A110018205F
:101EE000ABBEFBE7260002005FF0B0400068000DCB
:101EF00010F0010070475FF0B040016851F480318C
:101F0000016070475FF0B040016831F480310160DA
:101F100070475FF0B0400068400C10F0010070475F
:101F20005FF0B040016851F48071016070475FF06C
:101F3000B040016831F48071016070475FF0B040DB
:101F40000068800A10F001007047DFF880190A6805
:101F500032F0FE4252EA00620A607047DFF8700910
:101F6000016851F0010101607047DFF86409016800
:101F70004908490001607047DFF85409016851F0D1
:101F8000040101607047DFF84809016831F004017D
:101F900001607047DFF838090068400810F0010060
:101FA0007047DFF83009016851F0010101607047A6
:101FB000DFF8200901684908490001607047DFF82F
:101FC00014090068400810F001007047DFF80409A8
:101FD000016851F0040101607047DFF8F8080168FA
:101FE00031F0040101607047DFF8E8080068C008BC
:101FF00010F001007047DFF8DC180A6832F47062F4
:1020000052EA00220A6070475FF0B040016851F068
:102010000101016070475FF0B04001684908490064
:10202000016070475FF0B0400068400810F00100A8
:1020300070475FF0B0410A6832F0F00202430A6074
:1020400070475FF0B040006810F0F000B12801D395
:10205000B02108007047DFF874180A6832F47F4234
:1020600052EA00220A607047DFF8A8180A6892084E
:10207000920002430A607047DFF89808006810F089
:102080000C007047DFF88C180A6832F0F002024347
:102090000A607047DFF880180A6832F0F0020243E5
:1020A0000A607047DFF870180A681209120152EAD4
:1020B00010120A607047DFF85C180A6832F4E062B8
:1020C00002430A607047DFF84C180A6832F4605225
:1020D00002430A607047DFF8BC08006810F0F000A7
:1020E0007047DFF834080068000110F0F000704716
:1020F0005FF0B040016851F08071016070475FF09F
:10210000B040016831F08071016070475FF0B0400D
:102110000068400E10F001007047DFF87C0800688E
:10212000C0F306207047DFF87008006810F06040C8
:102130007047DFF86408006810F070007047DFF83F
:102140005808006810F003007047DFF8C8070068FF
:10215000000C10F001007047DFF8BC070068400C6D
:1021600010F001007047DFF8B0070068000C10F0B5
:1021700001007047DFF89C070068400C10F0010078
:102180007047DFF890070068800C10F0010070477E
:102190002DE9F0470400002C01D1012057E22078FE
:1021A000800668D5FFF768FF0500FFF7C8FF070046
:1021B000002D03D00C2D34D1012F32D1E06900283D
:1021C00001D1012043E2FFF73CFF616A88420DD252
:1021D000606A00F081FB002801D0012037E2606ACC
:1021E000FFF727FF206AFFF736FF0CE0606AFFF772
:1021F00020FF206AFFF72FFF606A00F06DFB0028C8
:1022000001D0012023E200F053FBDFF890170860B3
:10221000DFF88C07006800F0DBFB00282BD00120E2
:1022200015E2E069002816D0FFF7EEFE00F0FEFB95
:102230000600FFF7F7FE002806D100F0F7FB801B31
:102240000328F6D3032002E2606AFFF7F2FE206A59
:10225000FFF701FF0FE0FFF7DEFE00F0E7FB0600EF
:10226000FFF7E0FE002806D000F0E0FB801B03280B
:10227000F6D30320EBE12078C00738D5FFF7FCFE4A
:102280000500FFF75CFF0700082D03D00C2D06D1D9
:10229000032F04D16068002829D10120D7E16068AC
:1022A000B0F5803F02D1FFF726FE01E0FFF72AFEDE
:1022B000606800280DD000F0B9FB0600FFF729FE8A
:1022C000002814D100F0B2FB801B6528F6D3032050
:1022D000BDE100F0ABFB0600FFF71BFE002806D0B7
:1022E00000F0A4FB801B6528F6D30320AFE1207823
:1022F00080073BD5FFF7C0FE0500FFF720FF070072
:10230000042D03D00C2D0AD1022F08D1E06800283B
:1023100001D101209BE12069FFF717FE26E0E0686C
:10232000002813D0FFF7FCFD00F080FB0600FFF74C
:1023300005FE002806D100F079FB801B0328F6D3A8
:10234000032084E12069FFF700FE0FE0FFF7EFFDB7
:1023500000F06CFB0600FFF7F1FD002806D000F04E
:1023600065FB801B0328F6D3032070E1207810F072
:10237000180F79D06069002856D02078C00636D56D
:10238000FFF71DFE00280FD1FFF70BFE00F04EFBFC
:102390000600FFF714FE002806D100F047FB801B63
:1023A0000328F6D3032052E1FFF710FE00F03EFBB6
:1023B0000500FFF719FE002806D100F037FB401B8F
:1023C0000428F6D3032042E1A069FFF714FEFFF7CB
:1023D000EFFD00F02BFB0600FFF7F1FD002843D0D6
:1023E00000F024FB801B0328F6D303202FE1FFF726
:1023F000D8FD00F01BFB0600FFF7E1FD002806D129
:1024000000F014FB801B0328F6D303201FE1FFF725
:10241000E4FDFFF7E9FD002826D000F007FB801B54
:102420000428F6D3032012E1FFF7D7FD00F0FEFAEF
:102430000500FFF7D9FD002806D000F0F7FA401B91
:102440000428F6D3032002E1FFF7B2FD00F0EEFA14
:102450000600FFF7B4FD002806D000F0E7FA801B65
:102460000328F6D30320F2E02078400748D5DFF8B0
:1024700034552868C0050ED400F0DEFA00F0D6FA14
:1024800006002868C00506D400F0D0FA801B032897
:10249000F7D30320DBE0A068012802D1FFF75EFD3F
:1024A0000BE0A068052804D1FFF766FDFFF756FD95
:1024B00003E0FFF75AFDFFF766FDA06800280FD084
:1024C00000F0B4FA0600FFF765FD002818D100F00F
:1024D000ADFA801B41F289318842F4D30320B6E083
:1024E00000F0A4FA0600FFF755FD002808D000F020
:1024F0009DFA801B41F289318842F4D30320A6E083
:10250000A06A002800F0A280FFF7B6FD0500DFF802
:102510008894D9F80070A06A02287AD117F00300D5
:10252000E16A884218D117F07000216B884213D1FC
:10253000C7F30620616B88420ED117F47810A16BA7
:10254000884209D117F06060E16B884204D117F02E
:102550006040216C884240D00C2D3CD0FFF7CFFD6D
:1025600000F064FA80465FF0B04ADAF800008001BB
:1025700007D500F05BFAB0EB08000328F3D3032083
:1025800065E0D9F80010DFF820040140E06A01435B
:10259000206B0143606B51EA0021A06B0143E06BAB
:1025A0000143206C0143C9F80010FFF7A1FDD9F8E1
:1025B000000050F08050C9F8000000F037FA060023
:1025C000DAF80000800141D400F030FA801B0328C3
:1025D000F6D303203BE0012039E05FF0B048D8F8A3
:1025E0000000800132D4FFF783FDD9F8000050F0DD
:1025F0008050C9F8000000F019FA0600D8F8000071
:10260000800123D400F012FA801B0328F6D30320A4
:102610001DE00C2D18D0FFF772FD00F007FA060040
:102620005FF0B0400068800106D500F0FFF9801B24
:102630000328F5D303200AE0D9F80010DFF86C0373
:102640000140C9F8001001E0012000E00020BDE8D1
:10265000F087F8B504000D00002C01D10120DAE06C
:10266000DFF84C73386810F00700A84213D23868BE
:10267000C008C0002843386000F0D8F90600386868
:1026800010F00700A84206D000F0D0F9801B032804
:10269000F5D30320BFE02078800710D5A068FFF7AE
:1026A000F1FC00F0C3F90600FFF74FFD002806D14A
:1026B00000F0BCF9801B0328F6D30320ABE02078A0
:1026C000800610D56069FFF7E5FC00F0AFF9060061
:1026D000FFF742FD002806D100F0A8F9801B03286F
:1026E000F6D3032097E02078400610D5A069FFF7C5
:1026F000D9FC00F09BF90600FFF735FD002806D154
:1027000000F094F9801B0328F6D3032083E020789F
:10271000400710D5E068FFF7CEFC00F087F906000F
:10272000FFF728FD002806D100F080F9801B032860
:10273000F6D303206FE02078000711D52069C00090
:10274000FFF7C1FC00F072F90600FFF71AFD002840
:1027500006D100F06BF9801B0328F6D303205AE062
:102760002078C00735D56068022805D1FFF7D1FB76
:10277000002819D101204EE06068032805D1FFF739
:10278000C5FC002810D1012045E06068002805D173
:10279000FFF748FC002807D101203CE0FFF7CEFB03
:1027A000002801D1012036E06068FFF75DFC00F0F1
:1027B0003DF90600FFF760FC6168B0EB810F08D0BF
:1027C00000F034F9801B41F289318842F2D30320B2
:1027D00021E0386810F00700854213D23868C0083D
:1027E000C0002843386000F021F90600386810F076
:1027F0000700A84206D000F019F9801B0328F5D382
:10280000032008E000F054F8DFF89011086000F0B1
:102810003EF900F0DDF8F2BDF8B5FFF72DFC04003D
:10282000002C07D1FFF70DFC6249C0F3031051F8EB
:1028300020003CE0042C01D15F4838E0082C07D18F
:10284000FFF752FB012801D15B4830E05B482EE0E6
:10285000FFF775FC05002800022802D0032803D0EA
:102860000CE05548060011E0FFF73EFB012802D1BD
:102870005148060001E05148060007E0FFF7E1FB80
:102880004C49C0F3031051F820000600FFF745FC47
:102890000700FFF74EFC07FB06F70009401CB7FBDB
:1028A000F0F7FFF740FC400F401CB7FBF0F0F2BD23
:1028B00010B5FFF7B1FF0400FFF70DFC4049C0F36E
:1028C000031051F82000B4FBF0F010BD04000058D4
:1028D000900000589400005870B50400B12C02D349
:1028E0003448C66A04E03348C4F3031150F8216049
:1028F000FFF7F7FB3249C0F3031051F82000B6FB95
:10290000F0F54FF400712F48B5FBF0F000F006F839
:1029100070BD000008000058080100582DE9F04182
:1029200088B004000D0004A827491022FEF7F2FC2D
:10293000684626491022FEF7EDFC002600200428F8
:102940000BD204A951F82010A14204D3694651F8D2
:1029500020100E0001E0401CF1E7DFF85480D8F8A9
:102960000000C008C0003043C8F8000000F05EF866
:102970000700D8F8000010F00700B04206D000F0C1
:1029800055F8C01B0328F4D3032000E0002008B052
:10299000BDE8F081080000580C0000581400002029
:1029A00010000020000400588C80C111FCFFFFEFD4
:1029B00000400058905E00080024F4000048E80140
:1029C000505E000840420F0028610008386100088E
:1029D00070B504000025134E307800281DD0FFF795
:1029E00067FF4FF47A713278B1FBF2F1B0FBF1F08E
:1029F00000F026F900280DD1102C08D20022210069
:102A00005FF0FF3000F0FCF80748046007E00120A9
:102A1000050004E00120050001E001200500280078
:102A2000C0B270BD9800002010000020014800686E
:102A3000704700BF200900200248016851F48071EE
:102A400001607047000400581248016851F001010C
:102A5000016070470F48016851F002010160704742
:102A600010B500240C48016851F480710160032006
:102A700000F0C0F80F20FFF7ABFF002802D00120C4
:102A8000040001E000F029F92000C0B210BD0348A5
:102A900000687047042004E0004000581000002047
:102AA00080B5FFF7D1FF01BD80B5FFF7D3FF01BDB2
:102AB00010B410F007036C4C22684FF6FF010A4077
:102AC00052EA032269490A43226010BC70476648F3
:102AD0000068C0F302207047010049B2002909D400
:102AE000012210F01F018A40614903005BB25B09BB
:102AF00041F823207047010049B200290DD401227A
:102B000010F01F018A405B4903005BB25B0941F88A
:102B10002320BFF34F8FBFF36F8F7047010049B27F
:102B2000002909D4012210F01F018A4052490300F4
:102B30005BB25B0941F823207047010049B20029CC
:102B400009D4012210F01F018A404C4903005BB2F6
:102B50005B0941F82320704710B4020052B2002AEA
:102B600005D40A01464B040064B21A5508E00A0174
:102B7000444B040064B214F00F04234403F8042C03
:102B800010BC704770B4030013F00704D4F10700C1
:102B9000052801D3042001E0D4F10700251D072DED
:102BA00001D2002500E0E51E012616FA00F0401EC5
:102BB0000140A94016FA05F56D1E2A401143080090
:102BC00070BC704710B50400601EB0F1807F01D367
:102BD00001200EE0601E2C4908600F215FF0FF30DD
:102BE000FFF7BAFF0020294908600720284908603C
:102BF000002010BD10B504002000FFF759FF10BDE4
:102C0000F8B504000D001600FFF761FF0700320061
:102C100029003800FFF7B6FF0100200040B2FFF79F
:102C20009BFFF1BD10B50400200040B2FFF754FF38
:102C300010BD10B50400200040B2FFF75CFF10BDCE
:102C400010B504002000FFF7BDFF10BD10B5040053
:102C5000200040B2FFF762FF10BD10B50400200055
:102C600040B2FFF76AFF10BD0CED00E00000FA056E
:102C700000E100E080E100E000E200E080E200E04E
:102C800000E400E018ED00E014E000E018E000E0EF
:102C900010E000E040490A6832F4407202430A60E2
:102CA00070473D48016851F400410160704781B0B0
:102CB0003A490A6802430A60096801400091009994
:102CC00001B0704781B036490A6802430A6009685A
:102CD00001400091009901B0704780B55FF4002079
:102CE000FFF7E5FF002200212E20FFF789FF2E20AD
:102CF000FFF798FF01BD10B50400206829498842FC
:102D000013D15FF48010FFF7D2FF002200212C20A6
:102D1000FFF776FF2C20FFF785FF002200212D20F2
:102D2000FFF76EFF2D20FFF77DFF10BD38B58CB08B
:102D30000400302100226D46280000F037F820689A
:102D40001949884225D1FFF777FEFFF775FE4FF44A
:102D50008070FFF79FFF4FF4006000904FF44070C9
:102D60000890684600F0D7F8002801D000F025FA56
:102D7000FFF797FF4FF48060FFF7A4FF00220021C8
:102D80000320FFF73DFF0320FFF74CFF200000F07A
:102D9000A5FA0DB030BD000090000058500000585A
:102DA00058000058000C00580028004062F30F2221
:102DB00062F31F42401810F0030308D0C91A1FD352
:102DC000DB0748BF00F8012D28BF20F8022D1300B3
:102DD00030B414461546103928BF20E93C00FAD813
:102DE000490728BF20E90C0048BF40F8042D89009E
:102DF00028BF20F8022D48BF00F8012D30BC7047D5
:102E0000C91818BF00F8012DCB0728BF00F8012D05
:102E100070470000DFF84402006810F001007047BE
:102E2000DFF838020068400810F001007047DFF852
:102E300030120A6832F4404202430A607047DFF8F9
:102E400024120A689208920002430A607047DFF871
:102E500014120A6832F0300202430A607047DFF849
:102E600008120A689208920002430A607047DFF86D
:102E7000F8110A6832F4406202430A607047DFF8D2
:102E8000E8110A6803001B0913F47F239A43030126
:102E900013F47F231A430A607047DFF8CC211368CC
:102EA000010C09048B4353EA004313607047DFF8B9
:102EB000B8110A6822F0404202430A607047DFF806
:102EC000A8110A6832F0406202430A607047DFF8D6
:102ED00098110A6832F0405202430A607047DFF8E6
:102EE0007C110A6832F4407202430A607047DFF8CE
:102EF0006C01006810F440707047DFF860010168F1
:102F000051F4803101607047DFF85001016831F4FD
:102F10008031016070472DE9F047050000275FF020
:102F200000082868000533D5FFF7E1FF0400286A90
:102F300084422CD0FFF780FD002C03D1286AFFF7D4
:102F4000CEFF22E0DFF814A1DAF80090FFF7D5FFFA
:102F5000FFF7DAFF39F44079286A50EA0909CAF81C
:102F60000090FFF757FF01280FD1FFF75FFD060024
:102F7000FFF756FF012808D0FFF758FD801B41F2EC
:102F800089318842F4D303200700B84600E0B846F0
:102F90002878C00702D56868FFF761FF28788007A6
:102FA00002D5A868FFF763FF2878C00602D5286914
:102FB000FFF773FF2878800602D56869FFF76DFF79
:102FC0002878400702D5E868FFF759FF2868800590
:102FD00021D5A869B0F1804F06D0A869B0F1004FA3
:102FE00002D0A869002803D1A869FFF760FF08E0B4
:102FF000AC6934F080540020FFF759FF2000FFF740
:103000005EFFA869B0F1C05F05D1DFF8600001681C
:1030100051F080710160286840050CD5E869FFF720
:1030200056FFE869B0F1005F05D1DFF840000168A4
:1030300051F4803101602868C00402D5686AFFF746
:10304000F6FE2868800405D5E86AFFF700FFA86A45
:10305000FFF7F5FE4046C0B2BDE8F087900000588B
:103060009400005824000058880000580C000058B4
:1030700080B5FFF7F5FC00F080F900F00DF800F0E6
:1030800044F800F05DF800F097F800F064F800F004
:103090007EF900F029FAFCE710B598B0442100222F
:1030A00007AC2000FFF782FE1C2100226C462000A6
:1030B000FFF77CFE032007905FF4803008904FF408
:1030C00080700A9040200B900020119007A8FFF715
:1030D0005FF8002801D000F070F86F200090022007
:1030E0000190002002900020039000200490002016
:1030F00005900020069001216846FFF7AAFA0028F3
:1031000001D000F05AF818B010BD10B58CB03021C5
:1031100000226C462000FFF749FE4FF4405000901B
:103120004FF44040099002200A9010200B9068460E
:10313000FFF7F1FE002801D000F03FF80CB010BD01
:1031400080B519481949016000F0DEF9002801D066
:1031500000F033F801BD10B5154C16482060002072
:1031600060600F20A06047F6FF70E06000202061E3
:103170000020A06100206061200000F003FA002818
:1031800001D000F01AF800224FF6FF71200000F085
:1031900015F8002801D000F010F82068806830F49D
:1031A00080602168886010BD60080020000C005815
:1031B0009C08002000280040704770472DE9F0412E
:1031C00004000D00160094F82000012801D102200F
:1031D0007DE0012084F82000022084F82100CA202C
:1031E0002168486253202168486220688068400551
:1031F00018D5FFF71BFC07002068C068400711D5F1
:10320000FFF714FCC01B40F2E9318842F4D3FF20E1
:1032100021684862032084F82100002084F82000FF
:10322000032054E02068806830F480602168886062
:103230002068C06810F0800070F490602168C86059
:10324000FFF7F4FB80462068C068400712D4FFF700
:10325000EDFBB0EB080040F2E9318842F3D3FF20E8
:1032600021684862032084F82100002084F82000AF
:1032700003202CE02068456120688068C008C000F9
:103280002168886020688068304321688860114820
:10329000016851F4002101600F48016851F40021D8
:1032A00001602068806850F4804021688860206850
:1032B000806850F4806021688860FF20216848623F
:1032C000012084F82100002084F820000020BDE8BF
:1032D000F08100008008005800080058010091F8B3
:1032E0002000012801D102201BE0012081F82000EC
:1032F000022081F82100CA200A68506253200A681F
:1033000050620868806850F020000A689060FF20D2
:103310000A685062012081F82100002081F8200015
:103320000020704761490A68D208D20002430A604F
:1033300070475F490A6802430A6070475D495E4A08
:103340000A600A6832F47C5252EA00220A6070472E
:103350005A490A6832F4004202430A607047FF216A
:1033600041627047CA2141625321416270478268BD
:10337000D208D2000A438260704780B54FF4004003
:103380004F49086000F01FF800F01EF801BD80B53D
:1033900000F025F800F038F84A49002000F055FC0C
:1033A00000F0DFFD0121012000F0B9FE00F09AF8E5
:1033B00000F099F800F035F801BD704780B5502055
:1033C000FFF7B7FF01BD704710B5002000F0C4FE45
:1033D0000400002C02D0A079FFF7B0FF10BD80B52B
:1033E000FFF7EBFFFFF7EAFF00F001F801BD10B5B2
:1033F000354C2000FFF7B6FF00212000FFF7B7FF94
:103400002000FFF7ACFF10BD80B54FF40040FFF780
:103410009FFF00F065FE0420FFF784FF00F0BBFE75
:1034200001BD00B589B000F0C1FE284801F043F8A5
:103430000FF255020021402001F01CF924480290AF
:10344000244800900FF229000190684600F025FF03
:1034500021480390214804902148059040F23C50B7
:10346000069003A800F062FF00F09CFE09B000BDCA
:1034700010B504002100154801F02EF8002140206D
:1034800001F008F910BD000080B500F078FD0021C2
:10349000012000F044FE69460C4801F035F8009820
:1034A00000F066FF01F079F901BD000080040058CA
:1034B000900800589C000058FECAFECA0800005838
:1034C000104000589C08002000280040E008002020
:1034D00078050320EF4800089007032084060320A6
:1034E0003C0003207047704780B55FF0FF3001F06B
:1034F00019F801BD704738B504000D005FF0FF30CA
:1035000001F010F831BD000070B504000025002C5A
:1035100017D0154E94F83800002802D12000FFF78C
:10352000EAFB300000F026F8306850F001103060FF
:10353000200000F00BF800206063012084F83800C0
:1035400001E0012005002800C0B270BD002106295D
:1035500009D2074A00EB81035A60044A00EB810359
:10356000DA61491CF3E77047000C00580B1600089D
:10357000E7150008002101605FF03F1141603F2125
:103580008160704710B50400002C01D1012075E066
:1035900094F82100002805D1002084F820002000A4
:1035A000FFF7C4FB022084F82100DFF8D400006894
:1035B000C0065AD4CA202168486253202168486254
:1035C000200000F07BF8002807D0FF202168486227
:1035D000042084F82100012048E020688168DFF899
:1035E000A400014020688160206881686068014310
:1035F00020690143A069014320688160E068216877
:10360000086120680069A16850EA014021680861EA
:103610002068C06830F080002168C8602068C06CF5
:1036200030F002002168C8642068C16CE069014381
:10363000606901432068C1642068806880060FD4F7
:10364000200000F021F800280AD0FF2021684862FD
:10365000042084F82100002084F8200001200DE0DF
:10366000FF2021684862002000E000200100C9B26C
:10367000002902D1012184F82110C0B210BD000040
:103680000C280040BFFF8FFF38B504002068C068D9
:1036900030F0A0002168C860FFF7C8F90500206875
:1036A000C068800608D4FFF7C1F9401B40F2E93139
:1036B0008842F4D3032000E0002032BD38B5040076
:1036C0002068C068400613D45FF0FF302168C860EE
:1036D000FFF7ACF905002068C068400608D4FFF782
:1036E000A5F9401B40F2E9318842F4D3032000E001
:1036F000002032BDDFF8F0170A6802430A60704705
:10370000DFF8E8170A6802430A607047DFF8E0272D
:10371000116889B2106880B2814204D00100136838
:103720009BB21800F8E7704730B41822DFF8C437AE
:103730000C00E4B254431C44647D2500EDB2062D18
:1037400004D02500EDB255431D4428750500EDB2A7
:1037500055431D446C750500EDB255431D44297554
:103760000D00EDB202FB05F21A44507530BC7047F3
:1037700030B40B00DFF880472478DBB2A3421ED0C0
:103780001823DFF870470D00EDB25D4325442D7D11
:103790002A001500EDB25D43254468750500EDB2C1
:1037A0005D43254469750500EDB25D4325442A75E6
:1037B0000D00EDB203FB05F3234418750DE018234B
:1037C000DFF830470500EDB25D43254469750D0013
:1037D000EDB203FB05F32344187530BC70472DE9A7
:1037E000F8430400DFF8108798F80000062818D185
:1037F00098F80000DFF80417087088F800400621E8
:10380000DFF8F0262300DBB21820434302EB03006D
:1038100041755FF0FF30DFF8E81608605FF00009DF
:1038200053E000F0B4F881461820DFF8C8162200F3
:10383000D2B242430A442300DBB243430B449B68A9
:1038400013FA89F393602200D2B242430A44926889
:10385000150098F80020D2B242430A44926895427B
:1038600026D398F8002016003200D2B242430A4410
:10387000527D17003A00D2B2062A12D03A00D2B2D4
:1038800042430A44926895420BD3F6B2464301EB99
:103890000602567D3200D2B242430A44527D1700DE
:1038A000E8E73100C9B22000C0B2FFF73DFF0CE0ED
:1038B00098F800102000C0B2FFF75AFF98F80000F7
:1038C000DFF83816087088F80040484680B2BDE836
:1038D000F283F0B4DFF8205602002E78D2B2B24262
:1038E0000ED12A78DFF814663270DFF80866070018
:1038F000FFB21822574306EB0702527D2A702CE0D4
:103900001822DFF8F0650700FFB2574337443F7DC8
:103910003B000700FFB2574337447F7D3C001F0048
:10392000FFB25743374484465FFA8CFC02FB0CFC21
:10393000B4449CF815C087F815C02700FFB2062FC5
:103940000BD02700FFB25743374484465FFA8CFC04
:1039500002FB0CF23244127D3A750126DFF89475B1
:1039600084465FFA8CFC182202FB0CFC07EB0C026D
:1039700016732A78062A08D10A00D2B2002A04D186
:103980005FF0FF32DFF878552A60F0BC704738B539
:10399000DFF86C55286810F1010F19D0FFF7B6FE5B
:1039A00001002868884203D32868411A080006E00D
:1039B000DFF850050088401A040028682018DFF856
:1039C000481509784843DFF844150978C84000E0F5
:1039D000002080B232BD38B50400200080B200283B
:1039E00008D1FFF793FEDFF8181508600320FFF7F2
:1039F0002DF932E0200080B2022804DADFF80C054D
:103A00000078012800D0641EDFF804552868C068DB
:103A10004007F9D52868C06810F0800070F4906005
:103A20002968C8605FF40020DFF8E814086003200C
:103A3000FFF713F9DFF8E004016864F30F01016098
:103A4000FFF764FEDFF8B81408602868806850F457
:103A5000806029688860AFF3008031BD2DE9F843AC
:103A6000DFF8B8040068400505D5DFF8A404006855
:103A7000C0684007F9D4DFF898040168896831F418
:103A8000806100688160DFF8700406781824DFF830
:103A900064543000C0B2604328448768FFF777FF62
:103AA0008046404680B2874206D25FF0000901207E
:103AB000DFF86C14087013E0DFF86804018811FA6D
:103AC00088F1B94206D2B0F800900020DFF8501417
:103AD000087005E0B7EB08090120DFF8441408700E
:103AE0003000C0B2062823D03000C0B26043284462
:103AF0008068414689B2884206D23000C0B2604335
:103B00002844002181600DE03000C0B2604305EB25
:103B100000013000C0B2604328448268404680B251
:103B2000121A8A60F6B2664305EB0600467DD7E7B7
:103B3000484680B2FFF74FFFBDE8F1832DE9F0471B
:103B4000EFF3108672B6DFF8C873CA20396848628E
:103B50005320396848623868806830F4806039687A
:103B60008860DFF8940390F800A05FF01808DFF891
:103B700084935046C0B208FB00F04844007B022802
:103B80004BD15046C0B208FB00F059F800000400C9
:103B90005046C0B208FB00F0484400690500DFF859
:103BA00080030078002833D05046C0B208FB00F0F4
:103BB0004844407B012818D101215046C0B2FFF78C
:103BC00088FE86F310885046C0B208FB00F809EB67
:103BD000080041685046C0B200F026F9CA20396892
:103BE00048625320396848620BE086F310885046DB
:103BF000C0B200F0C1F8CA20396848625320396861
:103C0000486222005146C9B2280001F075F817E059
:103C1000FFF724FF86F3108812E03868C068400779
:103C2000FBD53868C06810F0800070F49060396887
:103C3000C8605FF40020DFF8DC12086086F31088AB
:103C4000FF2039684862BDE8F0872DE9F0410400A3
:103C50000D00DFF8BC72CA20396848625320396809
:103C60004862DFF8B802016851F020010160DFF816
:103C70009C12006810F00700D0F104000870DFF813
:103C80008802DFF8A42213681B0C13F07F035B1C6F
:103C900003709C4B12685204520C521C1A80B3F8E9
:103CA0000080B8F10108007800FB08F8B8F5A078AA
:103CB000087838FA00F84FF6FF70804502D399492A
:103CC000088002E09748A0F800805FF40020FFF72A
:103CD00017FD5FF40020FFF70DFD2000C0B20028A3
:103CE00036D101208E4908705FF0FF3084490860AA
:103CF000002006003000C0B206280ADA00217D4A02
:103D00003300DBB21820434302EB03000173761C3F
:103D1000F0E70620784908703868806830F48060E1
:103D2000396888603868C06810F0800070F490606E
:103D30003968C8605FF40020764908600320FEF708
:103D40008CFF3868806850F480403968886006E0ED
:103D50003868C068400502D50320FEF777FFFF20D2
:103D600039684862002203210320FEF749FF03203F
:103D7000FEF758FFBDE8F081F8B50400EFF31086B8
:103D800072B60320FEF755FF614FCA2039684862BA
:103D900053203968486257492200D2B21820424362
:103DA00001EB0200007B022835D100212000C0B2C7
:103DB000FFF78FFD5048007805002800C0B20628A4
:103DC00021D156480068400503D53868C0684007CF
:103DD000FBD43868806830F480603968886038685F
:103DE000C0684007FBD53868C06810F0800070F4E8
:103DF00090603968C8605FF400204649086003207D
:103E0000FEF72BFF07E03D4800782900C9B2884241
:103E100001D0FFF723FEFF20396848620320FEF738
:103E200001FF86F31088F1BD2DE9F84F04000D0065
:103E30005FF0180ADFF8BCB02000C0B20AFB00F047
:103E40005844007B022803D12000C0B2FFF794FF42
:103E5000EFF3108672B60320FEF7EBFE2C4FCA205C
:103E6000396848625320396848622000C0B20AFBB2
:103E700000F05844022101732000C0B20AFB00F098
:103E8000584485602000C0B20AFB00F058444560E9
:103E90002000C0B2FFF7A3FC8046174890F80090BE
:103EA000164800784946C9B2884202D0FFF7D6FDCD
:103EB00010E02000C0B20AFB00F00BEB0001200074
:103EC000C0B20AFB00FA0BEB0A008268404680B2DF
:103ED000121A8A60FF20396848620320FEF7A2FEAA
:103EE00086F31088BDE8F18F80080058000800585C
:103EF00028280040500700205409002055090020C0
:103F0000040900205009002058090020570900200A
:103F10009C0800200C080058142800400828004085
:103F200056090020520900201028004064490A6800
:103F300002430A60704781B062490A6802430A601E
:103F4000096801400091009901B0704781B05E4955
:103F50000A6802430A60096801400091009901B0B3
:103F6000704780B5FEF79CFDFEF79EFD5FF4803044
:103F7000FFF7DCFF00F011F800F0B0F801BD00B56C
:103F800087B0684651491C22FDF7C4F900F013FAC6
:103F9000684600F0C6FE07B000BD2DE9F84185B0C7
:103FA000142100226C462000FEF700FF00240025AB
:103FB000002600273800C0B226282CDA44493800F1
:103FC000C0B201EBC0008079002822D03800C0B216
:103FD00051F83000B0F1904F06D03E4A90420AD0DE
:103FE0003D4A90420ED014E03800C0B201EBC00050
:103FF000808804430DE03800C0B201EBC000808827
:10400000054306E03800C0B201EBC00080880643DB
:10401000FFE77F1CCEE700200290012001900320E3
:104020000390200080B2002814D0200080B20090BD
:104030000120FFF780FF0120FFF788FF69465FF04E
:10404000904000F08BFE0022210089B25FF090408A
:1040500000F045FF280080B2002814D0280080B26C
:1040600000900220FFF767FF0220FFF76FFFDFF8E5
:1040700064806946404600F071FE0022290089B242
:10408000404600F02CFF300080B2002814D03000F1
:1040900080B200900420FFF74EFF0420FFF756FF88
:1040A000DFF834806946404600F058FE00223100B7
:1040B00089B2404600F013FF06B0BDE8F081000071
:1040C000900800584C0000584C010058BC60000893
:1040D000A45C000800040048000800487047000085
:1040E00000201B49086000201A490860704710B47E
:1040F000EFF3108272B60B00DBB2002B06D0012B5F
:1041000009D1134B1C6804431C6004E0104B1C686D
:1041100084431C60FFE782F3108810BC704710B422
:10412000EFF3108272B60B00DBB2002B06D0012B2E
:1041300009D1084B1C6804431C6004E0054B1C6853
:1041400084431C60FFE782F3108810BC70470000B6
:10415000080900200C09002001000948C2790B0061
:10416000DBB29A4204D0074A904201D00838F5E702
:10417000C2790B00DBB29A4201D0002210007047D6
:10418000F873FF1F0070FF1FDFF81400016851F47F
:1041900000710160704780B5FFF7F6FF01BD0000B8
:1041A0000804005880B500F062FF01BD80B58F485B
:1041B0008F4901608F4941608F4981608F49016259
:1041C0008F4941628F49C1608F4901618F494161C7
:1041D0008F4981618F49C16100F05BFF01BDF8B576
:1041E000040025008C4F380000F065F97F484668D0
:1041F000A8683060E868F06088487060B76000F0D8
:104200005BFF286886490860686886490860002066
:10421000F2BD38B504000D007448012142681268EF
:10422000117240680168012000F00CF900F04AFFAB
:10423000002032BD1CB5784C200000F03FF900286A
:1042400019D16946200000F05FF90098407A0F28E4
:1042500003D00098407A0E2804D10099022000F083
:10426000F1F803E00099032000F0ECF800986C49A5
:1042700009688847DFE713BD38B504000D00022048
:104280005A494968C968087200F02AFF002032BD07
:1042900080B564480068804701BDF8B5040025007A
:1042A000614F380000F007F95048C668A8683060D0
:1042B000776000F028FF28685C49086068685C49FE
:1042C00008600020F2BD38B504000D0047481021F9
:1042D000C26812681172C0680168042000F0B2F868
:1042E00000F017FF002032BD10B5404CE0680168B7
:1042F000052000F0A7F8E06800684C490968884785
:1043000010BD1CB5484C200000F0D8F800280CD196
:104310006946200000F0F8F80099062000F092F8B5
:104320000098434909688847ECE713BD38B5040095
:10433000404D280000F0BFF83F4800F0BCF83F486F
:104340002A4909690160A16802689160E168026810
:10435000D16001680D6121680268116061680268BE
:10436000516021690268516161690068816131BDF4
:1043700010B504002100304800F0AEF82100002004
:1043800000F060F80FF2090000F0DEFE10BD000042
:104390001CB5294C200000F091F800280AD169468C
:1043A000200000F0B1F8009910480069006900F0A1
:1043B00093F8EEE713BD10B5214C200000F07BF818
:1043C0000A484069046000F0E3FE10BD1CB51C4CB7
:1043D000200000F073F8002807D16946200000F0A3
:1043E00093F8009800F0F2FEF1E713BD00000320FF
:1043F000C00A0320FC0A03200C0B0320340B03200B
:104400003C0B0320440B0320E00A03206C0B032029
:104410001C0B0320280B03205C0B0320B00A032095
:104420002409002028090020640B03202C09002007
:10443000300900204C0B0320E8080020340900203C
:10444000540B032010B40400E4B2002C09D0022C59
:1044500016D013D3042C21D01BD3062C25D01FD368
:1044600027E00A00547A0E2C05D00F2C02D0FF2C26
:1044700002D002E001E000E0FFE71AE00B0018E0E4
:104480000A00547A0E2C02D00F2C01D100E0FFE775
:104490000FE00A00547AFF2CFFD10AE00B0008E07D
:1044A0000A00547A0E2CFFD003E00A00547AFF2C45
:1044B000FFE710BC70470060406070470100EFF3F9
:1044C000108272B60868884201D1012000E0002005
:1044D00082F31088C0B27047EFF3108272B60860A2
:1044E00043684B6041604B68196082F310887047E5
:1044F000EFF3108172B64268036813600268436884
:10450000536081F31088704770B504000D00EFF31D
:10451000108672B6206828602068FFF7E9FF86F3EE
:10452000108870BD2DE9F14F86B08F4D286804903A
:104530002968069801402960894E306803908B48AD
:1045400000680290874807688948006801900398CE
:1045500038402968084268D002980199084264D11D
:104560005FF00009DFF814A25AF8390038402968D2
:10457000084202D119F10109F4E75AF8391039401B
:104580002868014000910AEBC90040680099084280
:1045900004D15FF0FF300AEBC9014860DFF8D4B105
:1045A00000980AEBC9014968084000F0BAF8CBF856
:1045B000000001200AEBC9014968DBF8002010FA6D
:1045C00002F291430AEBC9025160EFF3108872B610
:1045D0003168DBF8002010FA02F2914331600224C6
:1045E000002C0ED00AEBC40151F8081CDBF80020A7
:1045F00010FA02F291430AEBC40242F8081C641E4E
:10460000EEE788F310885C48DBF8001050F82100D2
:104610008047306803905548006802905148006810
:10462000070053480068019091E75FF0FF3051495F
:10463000086000F0CCFDEFF3108872B636684B4886
:10464000D0F800904748D0F800A01AEA0600296880
:10465000084206D14648006819EA000F01D1FEF76A
:1046600049FF88F3108800F0B3FD0498286007B074
:10467000BDE8F08FF8B504000D001600EFF31087C9
:1046800072B6200000F04DF83B4941F8206087F3F6
:104690001088F1BD10B4EFF3108272B6304B1C6875
:1046A00004431C60354B53F83140044343F8314018
:1046B00082F3108810BC7047EFF3108172B62B4A5A
:1046C00013680343136081F3108870472DE9F843A2
:1046D0000400284E3568306810F1010F01D1002721
:1046E00003E00120376810FA07F7DFF88480D8F874
:1046F0000090C8F800401D480168214204D1210003
:104700003800FEF7F8FEF6E73560EFF3108172B679
:104710000268A243026081F31088C8F80090BDE8E7
:10472000F18310B4020000201300190C09040029C1
:1047300002D1102108001B0413F07F4F01D1083073
:104740001B0213F0704F01D1001D1B010C491C000E
:10475000240F095D0818D0F11F00C0B210BC7047CB
:1047600010090020080000200C000020140900207F
:10477000180900201C090020E0070020D0080020B4
:1047800018610008DFF8000500680005000D70479B
:10479000DFF8F4040068000C70472DE9F84398B086
:1047A0001021002201AC2000FEF700FB00240025B0
:1047B00009A8DFF8D8143C22FCF7ACFDDFF8D004E0
:1047C0000668B604B60CDFF8CC0410EB8600DFF800
:1047D000C8140860DFF8C4040790DFF8C404089028
:1047E0000FF27D2005900FF29120069005A8FFF7AB
:1047F000F6FC01210220FFF792FC01210220FFF7C5
:1048000076FC0020DFF89C1408700020DFF8981474
:1048100008700F208DF804007F208DF80600FFF748
:10482000B7FF07003800ADF81000FFF7ABFF804678
:104830004046ADF8120001A800F082FA09A800F085
:1048400061FA81464846C0B2002801D0FEF7B5FCA7
:104850000FF2691200210820FFF70CFFDFF84C244B
:1048600000210120FFF706FF0FF2B1020021102006
:10487000FFF700FFDFF8382400210220FFF7FAFEDF
:10488000DFF8302400210420FFF7F4FE0120DFF8D8
:10489000281408700020DFF824140860DFF82004D2
:1048A000FFF709FEDFF81C04DFF81C140860002085
:1048B000DFF8181408700020009000230022002167
:1048C000002000F026FEDFF80824DFF8081400209E
:1048D00001F099F80FF2A51200212020FFF7CAFE7F
:1048E00000212020FFF7D6FE19B0BDE8F08310B5F7
:1048F0000400DFF8B4130878002805D00020087001
:104900000120FFF7D9FE08E02100DFF8B403FFF72C
:10491000E3FD00211020FFF7BDFE10BD2DE9F041A1
:10492000C0B0EFF31084DFF890532878012842D10B
:1049300000202870DFF884633100DFF88403FFF77C
:10494000E3FDDFF860030078002832D14FF4807176
:1049500000226F463800FEF729FA3068007A0228F4
:1049600007D1306810F108073068B0F80B60761D89
:1049700005E0306810F108073068867AF61C5FF0B1
:104980000008B0450AD217F808306A46DFF8481325
:10499000684601F047F818F10108F2E772B66A4676
:1049A000CE49002001F02FF80120287084F31088F0
:1049B00001E000F032F840B0BDE8F08110B5C84C1D
:1049C000B4F809004FF66051401A04D0401E06D0DA
:1049D000401E08D00BE0200001F067F814E0200032
:1049E00001F0B8F810E0200001F0E7F80CE0B4F8AE
:1049F0000900A0810120A0730120E0722120207213
:104A00000E2060720420A0722100AD48FFF764FD03
:104A100000211020FFF73EFE10BD80B50120A64901
:104A200008709D48A5490A6803681B699B689A42FB
:104A30000CD30A6803681B699B6800680069C0683A
:104A40001844824202D20868FFF792FC9C48FFF7A4
:104A500035FD002803D100211020FFF71BFE01BD0A
:104A600010B5040021009648FFF736FD0021102004
:104A7000FFF710FE10BD0000704700002DE9F8435D
:104A8000012501226946002000F0D7FC0400002C1B
:104A900074D09DF80000302809DB9DF800003A280A
:104AA00005DA9DF8000030388DF8000047E09DF8E9
:104AB0000000612809DB9DF80000672805DA9DF8F1
:104AC000000057388DF8000039E09DF800004128BB
:104AD00009DB9DF80000472805DA9DF8000037380B
:104AE0008DF800002BE09DF800000D2803D09DF804
:104AF00000000A281DD1DFF8EC81D8F8000000285A
:104B000014D0DFF8E491D8F80010484600F03CF8E3
:104B10004FF4807600273A0031004846FEF746F908
:104B20000020C8F80000002070490860002005003F
:104B300005E06F49002000F066FF00200500280016
:104B4000C0B201281AD169490878C00707D49DF876
:104B500000000001644A634B1B68D0540BE0624BB9
:104B6000604A10681E5C9DF80000064310681E54E1
:104B70001068401C10600868401C0860002120205C
:104B8000FFF788FDBDE8F1832DE9F04704000D0033
:104B900026783000C0B2022815D0102802D0202874
:104BA0000BD01BE03C480068C068006810F10807A3
:104BB00000210220FFF76EFD1AE04E4F0021082071
:104BC000FFF768FD14E0344800684068C06810F1E1
:104BD000080700210420FFF75DFD09E02E4800686A
:104BE0004068006810F1080700210120FFF752FD1E
:104BF000A846A146BA46424649465046FCF77AFBCB
:104C0000BDE8F0872DE9F84F84B004000D001600D0
:104C10001F001F48D0F800805FEA88485FEA984884
:104C20001C4810EB8800039001201F49087003986E
:104C3000C068006800900098A0F809400098C5720C
:104C4000A9465FFA89F90296009810F10C0A4A46C3
:104C500002995046FCF74EFB00210020FFF733FB82
:104C60000120FFF733FD009890F802A01AF1030A23
:104C70000098019017F1080B524601995846FCF72D
:104C800039FB05B0BDE8F08F002004E0D05E0008DD
:104C90003C40005800000320400900209C080320ED
:104CA000A80903205C0900205B09002013420008CA
:104CB000C7420008794200085A0900203C09002038
:104CC000F8080020F00800203809002059090020C9
:104CD00064610008E85F00086C6100087461000806
:104CE0009C04002048090020A80500204409002059
:104CF00068600008A404002070B504000D001600D0
:104D0000B04770BD38B584B004006D462B0014F177
:104D10000C022D214FF66640FFF774FFA87B05B00B
:104D200030BD38B584B004006D462B0014F10C0280
:104D30000F214FF66840FFF765FFA87B05B030BD37
:104D400038B584B004006D462B00220010214FF6C8
:104D50007540FFF757FFA87B05B030BDF0B40300E6
:104D600000250868E840002800F0B78001260F6899
:104D700016FA05F007403A00002A00F0AC800879E6
:104D800010F00300012804D0087910F00300022875
:104D900019D19F685FF0030C68001CFA00FC37EA29
:104DA0000C07D1F80CC068001CFA00FC5CEA07078D
:104DB0009F605868AE40B0434E68C6F30016AE40E0
:104DC000304304005C60087910F0030003280AD027
:104DD000DE68032768008740BE438F68680087400D
:104DE0003E433400DC60087910F00300022816D13D
:104DF0002800C00803EB8000006A0F26AF0017F000
:104E00001C07BE40B0430E69AF0017F01C07BE4040
:104E1000304304002800C00803EB800004621E68D1
:104E2000032768008740BE430F7917F00307680027
:104E300087403E4334001C60486810F4403F4AD02D
:104E40002D4E2800800856F820000F275FEA850CB9
:104E50001CF00C0C17FA0CF7B843B3F1904F01D1CA
:104E600000240FE0254CA34201D101240AE0244C88
:104E7000A34201D1022405E0224CA34201D1042423
:104E800000E00724AF0017F00C07BC4020432C00C3
:104E9000A40846F824001C4E346894434F68FF026F
:104EA00000D514433460194E306890434F68BF02F8
:104EB00000D510433060164C266896434F68FF03B8
:104EC00000D5164326601348046894434F68BF0317
:104ED00000D5144304606D1C43E7F0BC7047130019
:104EE000DBB2002B03D00B009BB2836102E00B000E
:104EF0009BB2836270470000080001400004004834
:104F00000008004800100048000800580408005835
:104F10008008005884080058A448016851F40041F2
:104F200001607047A2490A6802430A607047A149BC
:104F30000A6802430A60704781B09F490A680243C9
:104F40000A60096801400091009901B0704781B082
:104F50009A490A6802430A60096801400091009971
:104F600001B07047016851F48031016070470168F9
:104F700051F0010101607047426832EA014242602B
:104F80007047426852EA01424260704742688A4371
:104F900042607047816070470A0482607047C06851
:104FA0000840884201D1012000E000207047C0691C
:104FB0000840884201D1012000E00020704710B570
:104FC0007F4C02212000FFF7F2FF002807D07D4828
:104FD0000068C043800702D500F0AEF81AE0012156
:104FE0002000FFF7E4FF002807D076480068C043A0
:104FF000C00702D500F06CF80CE008212000FFF794
:10500000D6FF002806D06F480068C043000701D5CE
:1050100000F0C4F810BD10B5694C02212000FFF764
:10502000BEFF002807D167480068C043800302D54F
:1050300000F07AF81AE008212000FFF7B0FF0028FE
:1050400007D160480068C043000302D500F092F821
:105050000CE020212000FFF7A2FF002806D15948CC
:105060000068C043800201D500F045F810BD80B54E
:105070005FF48010FFF76BFF4FF40070FFF757FFEE
:105080004FF40070FFF74EFF40BF20BFFFF744FF13
:1050900001BD10B55FF48010FFF74EFF484C2000B3
:1050A000FFF765FF2000FFF75DFF2C20FDF7BAFD3D
:1050B0002D20FDF7B7FD10BD80B501214048FFF759
:1050C00065FF01BD80B501213D48FFF765FF01BDCA
:1050D00080B5FFF7AFF801213948FFF75BFF01BD4D
:1050E00010B5374C20212000FFF756FF202120006B
:1050F000FFF742FF10BD80B520213148FFF741FF87
:10510000FFF7C6F801BD80B502212D48FFF73EFF2D
:1051100001BD10B52A4C02212000FFF73DFF0221FE
:105120002000FFF729FF10BD80B502212448FFF7BA
:1051300028FFFFF7D9F801BD80B5FFF7E2F802219B
:105140001F48FFF727FF01BD38B504001C4D08219B
:105150002800FFF724FF002806D01B480460082120
:105160002800FFF709FF04E0A04708212800FFF707
:1051700013FF31BD10B5124C08212000FFF701FFCD
:1051800011480068804708212000FFF705FF10BD87
:1051900080B508210A48FFF7F9FE01BD80B5FFF789
:1051A00015F908210648FFF7F5FE01BD0C0400586B
:1051B000D4080058200800585000005850010058EA
:1051C000000C0058040C005800090020704770477C
:1051D00070470000F8B5DFF8A843A825002627008F
:1051E000320029003800FDF7E1FD03202061032093
:1051F0006061DFF89003A061DFF88C13E1614FF488
:10520000806121620021A162002161620021E162CE
:105210002066DFF8780360661020A0660020206713
:105220000020E06600206067BFF35F8F0020102839
:1052300007D2DFF85C1342421144C97B2154401C61
:10524000F5E7BFF35F8FF1BD2DE9FE4F05000E00BE
:1052500014005FF00008D5F80C9028690700B945E4
:1052600003D2B7EB0900401E04E0A868B0EB0900C8
:105270003818401EA968B1EB0901884201D2824664
:1052800003E0D5F808A0BAEB090AA24500D3A2466C
:10529000686848440090CDF808A00196DDF800B099
:1052A000029A01995846FCF725F81AEB080856446B
:1052B000B4EB0A041AEB0909A868814501D1002062
:1052C0008146BFF35F8FC5F80C90002CC5D14046D6
:1052D000BDE8FE8F2DE9F84F84B004000D001600E4
:1052E000E768D4F80880B8EB070846450FD2606835
:1052F00000EB07090196AA46CB46019A514658464B
:10530000FBF7F8FFBFF35F8FF019E06021E0CDF805
:105310000080606838440190009803900295DDF8A1
:105320000490039A02994846FBF7E4FFB6EB0800A5
:105330000090D4F804900098019005EB080ACB4641
:10534000019A51465846FBF7D5FFBFF35F8F00988F
:10535000E06005B0BDE8F08F01000A69CB689342B8
:1053600004D38868401EC01A101801E0D01A401EED
:1053700070472DE9F14F84B00E001700DFF80042AE
:10538000A3469BF80000002801D1FFF723FF0499F2
:105390001820414304EB010010F16008B146D8F831
:1053A00010A0D8F80C00019000240198504520D29C
:1053B000D8F80800B0EB0A00B84201D2050000E0BE
:1053C0003D00D8F8040050440090039500980290E6
:1053D000CB46039A02995846FBF78CFF2C19A94437
:1053E0007F1B15EB0A0AD8F80800824501D100207E
:1053F00082460198B0EB0A00B84201D2050000E0F5
:105400003D00002D11D0D8F80400504400900395C1
:1054100000980290CB46039A02995846FBF76AFF20
:105420002C19A9447F1B15EB0A0A002C01D0C8F8DF
:1054300010A0200005B0BDE8F08FF8B504000D0005
:105440001600EFF31187202080F311883200290025
:105450002000FFF78EFF87F31188F2BD2DE9F0479A
:1054600004000D001600A846DFF81401182101FB06
:1054700004F1084410F1180ADAF81400002803D0E7
:10548000022820D010D325E05046FFF765FF070023
:10549000B74202D25FF0000905E0B1463200414652
:1054A0005046FFF717FF17E05046FFF755FF07007C
:1054B000B74201D2B94600E0B1464A46414650469D
:1054C000FFF708FF08E0320041465046FFF7BCFEF8
:1054D000814601E05FF000094846BDE8F0872DE90C
:1054E000F04104000D001600DFF8947038780028B1
:1054F00001D1FFF76FFEEFF31188202080F31188B0
:10550000320029002000FFF7A9FF88F31188BDE8C9
:10551000F0812DE9F84F04000D0016001F00DDF8A2
:105520002880DFF85CB0DA469AF80000002801D144
:10553000FFF750FE032C1ED2EFF31181202080F3E1
:105540001188182000FB04F0584418308146002CC4
:105550000BD0C9F80050C9F80460C9F808700020E1
:10556000C9F810000020C9F80C00C9F8148081F3B4
:105570001188002001E05FF0FF30BDE8F28F0000ED
:10558000A8060020586100089C000020C0080020E8
:10559000F460000870B504000D00A6686068711C16
:1055A000884206D320688555701CA060E068401CC6
:1055B000E060A068616888420DD1A2682168206916
:1055C000FFF78DFFA168884203D05FF0FF30E060F5
:1055D00001E00020A06070BD2DE9FE4F0700884665
:1055E00091461E000C9CC24601255FF0010BCA4586
:1055F00004D3BAFBF9FA1BF1010BF8E7B34500D26B
:10560000B3460D98C0071AD4002C18D00D98800707
:1056100005D5002E03D130208DF8000002E02020B7
:105620008DF80000002C0AD0A34508D2641E9DF816
:1056300000103800FFF7AEFFF8680028F2D5F868D0
:10564000002830D4022E01D3761E05E0B8FBF5F019
:1056500001900198484502D309FB05F5F2E7B8FB34
:10566000F5F00190019805FB108810480199415C04
:105670003800FFF78FFFF868002803D4B5FBF9F571
:10568000002DECD10D98C0070DD5002C0BD0002CAF
:1056900009D0A34507D2641E20213800FFF77AFF06
:1056A000F8680028F3D5BDE8F78F0000086100080E
:1056B0002DE9FE4F06000F0090461D000C9CDDF802
:1056C0003490002F02D5D7F1000A00E0BA465FF00F
:1056D000010BC24504DB9AFBF8FA1BF1010BF8E75A
:1056E000AB4500D2AB46002C05D0002F02D45FEAB8
:1056F000497000D5641E5FEA897001D5002D10D075
:105700005FEAC9700DD4002C0BD0002C09D0A34542
:1057100007D2641E20213000FFF73CFFF06800280C
:10572000F3D5F068002831D4002F05D57F422D2114
:105730003000FFF72FFF06E05FEA497003D52B2109
:105740003000FFF727FFF06800281FD419F003008E
:1057500002280FD1002D0DD1002C0BD0002C09D028
:10576000A34507D2641E30213000FFF713FFF06815
:105770000028F3D5F068002808D4CDF804900094F0
:105780002B00424639003000FFF726FFBDE8F78FB7
:105790002DE9F14F98B08946150007A802904020E6
:1057A000039000200490189806900020059099F826
:1057B0000000060019F101093000C0B2002800F015
:1057C0000F813000C0B2252840F0018100208046C2
:1057D0000120040099F8000006003000C0B2232820
:1057E00015D02B280ED02D2802D0302805D013E05C
:1057F00058F0010819F1010910E058F0020819F1F8
:1058000001090BE058F0040819F1010906E058F00D
:10581000080819F1010901E000200400002CD9D189
:105820000020824699F8000006003000C0B23028FF
:1058300003DB3000C0B23A2808DB0020070099F8EB
:1058400000100800C0B22E2820D109E019F101098A
:105850000A2000FB0AFA5AFA86FABAF1300AE1E79E
:1058600019F1010999F8000001000800C0B23028C0
:1058700003DB0800C0B23A2800DB07E019F1010998
:105880000A20474357FA81F7303FEBE799F8006069
:105890003000C0B26C2803D03000C0B2682805D1F7
:1058A00019F1010999F800000600F1E73000C0B2D3
:1058B000252800F08480582841D063280AD0642825
:1058C00017D0702868D073284CD0752824D0782839
:1058D00035D079E028682860286800682968091DA3
:1058E00029600400A3465946C9B202A8FFF752FE38
:1058F0006AE028682860286800682968091D29600E
:105900000400CDF80480CDF800A03B000A2221005D
:1059100002A8FFF7CDFE57E02868286028680068D5
:105920002968091D29600400CDF80480CDF800A085
:105930003B000A22210002A8FFF74EFE44E028683F
:105940002860286800682968091D29600400CDF8CE
:105950000480CDF800A03B001022210002A8FFF730
:105960003BFE31E0286828602868D0F800B028683D
:10597000001D28609BF8000006001BF1010B3000A1
:10598000C0B2002807D03100C9B202A8FFF702FE5A
:1059900005980028EED517E0286828602868006878
:1059A0002968091D2960040000200190082000904A
:1059B00008231022210002A8FFF70EFE04E0252193
:1059C00002A8FFF7E7FDFFE719F1010904E0310044
:1059D000C9B202A8FFF7DEFD059800287FF5E7AE03
:1059E000059801280BDB0498002804D0049A07A925
:1059F0001898FFF774FD05990498411805910598CA
:105A000019B0BDE8F08F0CB438B504000D0004A83F
:105A100000906A4629002000FFF7BAFE32BC5DF80C
:105A20000CFB00000CB430B583B00A4606A9029105
:105A3000044600250194009502AB01A9084878446A
:105A40001E30FAF77EFB019A157000284EBF0446FF
:105A50000198041B204603B030BC5DF80CFB00BF6E
:105A600033B8FFFF854800680005000D7047834884
:105A70000068000C704782480068704781480078D1
:105A800000F0FF0070477F480068000A70477E48BA
:105A9000006870477D48006870477D48006870471F
:105AA0007C48007810F01F007047F0B4EFF31081CD
:105AB00010F10C021378012B02D0022B14D027E036
:105AC00072B6D2F80530D2F80540D2F80150D2F8BB
:105AD0000960D2F80170247834EA05053E40354368
